:100000000C9455000C9475000C9475000C947500BC
:100010000C9475000C9475000C9475000C9475008C
:100020000C9475000C9475000C9475000C9475007C
:100030000C9475000C9475000C942A050C947500B2
:100040000C9475000C9475000C9475060C94750056
:100050000C9475000C9475000C9475000C9475004C
:100060000C9475000C9475000C9475000C9475003C
:100070000C9475000C9475000C942A040C945A048A
:100080000C9475000C9475000C94750005A84CCD6B
:10009000B2D44EB93836A9020C50B9918688083CC2
:1000A000A6AAAA2ABE000000803F11241FBECFEFDF
:1000B000D0E1DEBFCDBF13E0A0E0B1E0E0EAF7E3BE
:1000C00000E00BBF02C007900D92AC31B107D9F729
:1000D0001BBE16E0ACE1B3E001C01D92A734B1072E
:1000E000E1F70E9477000C94CE1B0C9400002F9235
:1000F0003F924F925F926F927F928F929F92AF92B8
:10010000BF92CF92DF92EF92FF920F931F93DF93F4
:10011000CF93CDB7DEB7C452D8400FB6F894DEBF48
:100120000FBECDBF0E9456051A981B9A80E061E071
:1001300041E00E94270680E190E80E948804109226
:10014000460680914606809345050E941B057894DB
:10015000F6E0CF2EF2E0DF2ECC0EDD1EC6010E94AF
:10016000D816CE0101960E9487078E8D9F8DFE01C5
:10017000E350F84F918380838E010E531F4FC801C7
:100180000E947808EDE6EE2EF12CEC0EFD1EC70164
:100190000E944F051601CF5DD74F0883C152D8404A
:1001A000CE5DD74F1883C252D840470197012E5FCA
:1001B0003F4FC15ED74F39832883CF51D84077E274
:1001C000472E512C4C0E5D1EC101BE016F5F7F4F4B
:1001D000CF5DD74F4881C152D840CE5DD74F5881AF
:1001E000C252D8400E94A614782E0E94A204C05485
:1001F000DF4F99838883C05CD04090FD20C0C354FA
:10020000DF4F28813981CD5BD04020353105B8F4EE
:10021000F401E20FF31F8083D4018C918F3F49F4E6
:100220002F5F3F4FC354DF4F39832883CD5BD040CE
:1002300006C0C354DF4F19821882CD5BD040C15431
:10024000DF4F1882CF5BD040C354DF4F48815981C4
:10025000CD5BD040423051050CF4EDC2F401218158
:10026000822F81508D3038F0C354DF4F19821882AD
:10027000CD5BD040E0C2E22FF0E0EE0FFF1FE05078
:10028000FF4F808191810196841795070CF0D3C2AE
:1002900081E0C154DF4F8883CF5BD040273009F421
:1002A000C1C2283080F4243009F403C2253020F480
:1002B000233009F0C0C2C6C1253009F461C226301E
:1002C00009F0B9C2AFC22B3009F4C2C02C3038F4E7
:1002D000293009F4ABC22A3009F0ADC22EC02C304F
:1002E000F1F02D3009F0A7C2D4011396BC91C65E7F
:1002F000D74FB883CA51D840C75ED74F1882C9516B
:10030000D840F4018281C75ED74F28813981C95115
:10031000D840280F311DC9010E949D178CC294013D
:100320002D5F3F4FCE010196B101D40112964C9141
:1003300002E010E00E94C8077EC2F2011192E815A7
:10034000F905E1F7772009F070C0CC24DD24AA2458
:10035000BB2465C0F80143E0F695E7954A95E1F7BF
:10036000D7014C9150E011968C918370440F551F2A
:10037000440F551F480F511D202F277068E0621B46
:10038000D201AE0FBF1F8FEF90E002C09595879509
:100390002A95E2F7CD5DD74F99838883C352D84021
:1003A0008AE090E0861B91099A0102C03695279554
:1003B0008A95E2F7C901CD5DD74F2881C352D84055
:1003C00028238C91282B2C9362503196E40DF51D37
:1003D0008FEF90E0062E02C0880F991F0A94E2F773
:1003E00002C0440F551F6A95E2F784232081822BB7
:1003F0008083065F1F4F42E050E0E40EF51E765FFB
:100400007E3109F0A7CF86E090E0C80ED91EAEE19C
:10041000B0E0AA0EBB1EBCE6CB16D10431F07101D0
:10042000EC0CFD1C850170E095CFC20164E470E026
:100430000E944807E1E07E1609F40196AC968FAF62
:10044000AC97AD969FAFAD97C20166E470E02EC148
:10045000C15ED74F88819981CF51D84064E470E064
:100460000E944807CC54DF4FF881C45BD040C45E83
:10047000D74FF883CC51D840C55ED74F1882CB51A7
:10048000D840CD54DF4F2881C35BD040C55ED74FE5
:1004900048815981CB51D840420F511D841795078F
:1004A00019F080E011E002C08BE010E08FA3C201E0
:1004B00061E070E00E949606C201B101AE014F5F9B
:1004C0005F4FCF5DD74F2881C152D840CE5DD74F07
:1004D0003881C252D8400E94AB06112309F0ABC14B
:1004E000CC50D84F2881C45FD7402B3008F0A3C12F
:1004F000CD50D84F8881C35FD74090E0820F911DC7
:100500006CE070E00E94991B2F5FCC50D84F28837D
:10051000C45FD740EE24FF24AA24BB24C82EDD24C8
:100520008CE690E0C89E3001C99E700CD89E700C7D
:10053000112458C0C8018A0D9B1D482F477068E0E0
:10054000641BEFEFF0E002C0F595E7954A95E2F7FE
:10055000AF0150E023E0959587952A95E1F7F401E6
:10056000E80FF91F828190E0482359238AE090E048
:10057000861B910902C0440F551F8A95E2F762500D
:100580002FEF30E0062E02C0220F331F0A94E2F74D
:1005900030E0838190E02823392302C035952795E8
:1005A0006A95E2F7240F351FC901959587959595B2
:1005B00087958C932370307011962C931197065F5A
:1005C0001F4F12960E31110509F0B4CF26E030E02E
:1005D000E20EF31E4EE150E0A40EB51E5CE6E516F9
:1005E000F10451F0D701A60DB71DA259BF4FA20DBE
:1005F000B31D00E010E09ECF89859A85AB85BC8550
:100600000297A105B10509F016C1CE9CB001CF9C9F
:10061000700DDE9C700D112462597F4F620D731DA9
:10062000C10121E030E040E050E0E1E0EE2EF12CAD
:10063000012D112D0E94F309CC50D84F1882C45FB0
:10064000D740F9C0D40112968C9112971496DC9081
:10065000149713969C919093C504D092C60462E0BF
:1006600042E00E9480058091C6048A5F0E94C8050E
:10067000E82E0091C60410E00A5F1F4FCD2CDD2448
:100680008BE495E0B6010E944807FF24E016F106CE
:1006900009F00196F601EA5BFA4F85839683E2E062
:1006A000F0E0CE0EDF1E8BE495E0B6010E949606C8
:1006B000C2C0D4011296CC9012971396AC901397A7
:1006C0001496DC90ED2CFF248701095F1F4F04175F
:1006D000150734F0C154DF4F1882CF5BD040ABC058
:1006E000F401B580B7016C5F7F4FC15ED74F888141
:1006F0009981CF51D8400E944807080D191DD80193
:10070000BC91C25ED74FB883CE51D840C35ED74F9D
:100710001882CD51D840F401EE0DFF1D2681C35E35
:10072000D74FE881F981CD51D840E20FF11D8E17E6
:100730009F0711F080E01FC0F4013696A6ECB4E0EC
:10074000B7016A5F7F4F680D791D02C081918D935B
:10075000E617F707D9F7BB2011F463E001C064E0A6
:10076000A092C504D3948C2D4D2D0E94800586E067
:100770000E94C80584E08FA3C20161E070E096CFBB
:100780000E940E057B018C012FEF30E040E050E02D
:100790000E94AC1B6FA3C801B7012FEF30E040E00F
:1007A00050E00E94AC1B122F032FF42EE52E622F77
:1007B000732F842F952F2FEF30E040E050E00E9400
:1007C000AC1B68A7612F702F8F2D9E2D2FEF30E06F
:1007D00040E050E00E94AC1B122F032FF42EE52EB8
:1007E000622F732F842F952F2FEF30E040E050E0E1
:1007F0000E94AC1B69A7612F702F8F2D9E2D2FEFAC
:1008000030E040E050E00E94AC1BCA01B9012FEF7C
:1008100030E040E050E00E94AC1B6AA7C20164E0F7
:1008200070E044CF80E00E94BF0405C08EEF65E019
:1008300040E00E948005C154DF4F8881CF5BD040EB
:10084000882309F4C1CCC354DF4F19821882CD5BD1
:10085000D040BACC1F920F920FB60F920BB60F92E8
:1008600011242F938F939F93EF93FF9390919B006D
:1008700020919C00E0913E03EF5FEF7780913F0372
:10088000E81711F482E008C0892F8871E0933E03D5
:10089000F0E0E05CFC4F20838093C003FF91EF9178
:1008A0009F918F912F910F900BBE0F900FBE0F90C5
:1008B0001F9018951F920F920FB60F920BB60F92C2
:1008C00011248F939F93EF93FF9390911C0380913A
:1008D0001D03981769F0E0911D03EF5FEF71E0933E
:1008E0001D03F0E0E25EFC4F808180939C0005C018
:1008F00080919A008F7D80939A00FF91EF919F9154
:100900008F910F900BBE0F900FBE0F901F901895F8
:100910009C0110921C0310921D0310923E03109232
:100920003F0397FF04C082E080939B003F773093A2
:1009300098002093990088E980939A0086E080933C
:100940009D00089590913E0380913F03981719F4FC
:1009500020E031E012C0E0913F03EF5FEF77E093DA
:100960003F03F0E0E05CFC4F30812091C003922F08
:1009700080E0AC01430F511D9A01C9010895282F51
:1009800090911C039F5F9F7180911D039817E1F365
:10099000E92FF0E0E25EFC4F208390931C038091EE
:1009A0009A00806280939A000895DC0115C09091AE
:1009B0001C039F5F9F7180911D039817E1F31196AF
:1009C000E92FF0E0E25EFC4F208390931C038091BE
:1009D0009A00806280939A002C91222341F7089517
:1009E000AC0114C020911C032F5F2F7180911D0357
:1009F0002817E1F3E22FF0E0E25EFC4F90832093B2
:100A00001C0380919A00806280939A00FA014F5FE4
:100A10005F4F9491992331F708950895F8942091A8
:100A2000C1033091C2034091C3035091C403789431
:100A3000B901CA0108951EBC87B7837C846087BF53
:100A40001DBC1CBC17BC88EC86BD8EEF8FBD8AE137
:100A50008EBD08951F920F920FB60F9211248F939F
:100A60009F93AF93BF938091C1039091C203A091D4
:100A7000C303B091C4030196A11DB11D8093C103AE
:100A80009093C203A093C303B093C403BF91AF91EB
:100A90009F918F910F900FBE0F901F901895FC01A2
:100AA000E05BFF4F1192119210820895E1E6F0E0B1
:100AB0001082808182B982B181BB81B384BB84B34F
:100AC00087BB87B38ABBE5E6F0E010828081E2E66F
:100AD000F0E08083808183B983B182BB82B385BB20
:100AE00085B388BB80B58B7F80BD82B18C6082B9B5
:100AF00081B3876081BB9798949A959A969A089546
:100B00009FEF9093C6059093C7058093C8054E5FED
:100B10004093C90542506093CA05E5ECF4E0ABECA4
:100B2000B5E0242F30E02E0F3F1F02C081918D933E
:100B3000E217F307D9F74A5F62E050E0242F30E074
:100B40002150304003C08081580F6F5F862F90E0A6
:100B5000FC01EA53FA4F82179307ACF35095508388
:100B60001B981A9AE6ECF5E0842F90E08E0F9F1FF9
:100B700006C05E9A20815D9BFECF2CB93196E817A6
:100B8000F907B9F75E9BFECF1A981B9A842F089538
:100B9000582F90914505A6E4B5E040E018C02F5FBE
:100BA0003F4F85E72233380731F49093450581E0C4
:100BB00013C020E030E080914606981781F3E92FBA
:100BC000F0E0EB53FC4F80818D934F5F9F5F4517A3
:100BD00080F39093450580E09091C8059E3FA9F170
:100BE000882331F05F3F21F08091460680934505D0
:100BF000443058F1809146058F3F09F580914705B3
:100C00008F3FE9F4809148058917C9F4209149057F
:100C100030E0842F90E004972817390781F4E8E446
:100C2000F5E090E04350242F30E04D5F275B3A4FD2
:100C30008191980FE217F307D9F79F3F31F0809128
:100C400046068093450580E00895842F0895882303
:100C500081F41092900069B982E08BB988E18AB979
:100C600040FD579A86E0809395008FEF8CB95E9A8D
:100C70000895813019F5109298006093990082E0F0
:100C800080939B0088E180939A0040FF05C080918B
:100C90009A00806880939A0041FF05C080919A0075
:100CA000806480939A0086E080939D008FEF80930C
:100CB0009C0080919B00806480939B0008955D9BC5
:100CC000FECF8CB90895982F80919B0085FFFCCFB3
:100CD00090939C00089580919B0087FFFCCF8091AA
:100CE0009C00089580919C0008951F920F920FB66A
:100CF0000F920BB60F9211248F939F93EF93FF9354
:100D0000809146069CB1E5ECF3E0E80FF11D90837D
:100D10008F5F80934606FF91EF919F918F910F9087
:100D20000BBE0F900FBE0F901F9018950F931F933F
:100D3000CF93DF938C01EB0106C0F80181918F0105
:100D40000E94BF0421971C161D06BCF3DF91CF91B2
:100D50001F910F910895FC01DB01A950BA4F8C91AE
:100D6000808311968C918183DB01AF5EB94F8C91AA
:100D7000828311968C918383DA0154968C915497D7
:100D8000848355968C91858362517A4FDB018C91D7
:100D90008683CF0167E070E00E94960608950F9366
:100DA0001F93CF93DF938C01EB0106C00E94A20436
:100DB000F80181938F0121971C161D06BCF3DF916A
:100DC000CF911F910F910895DC01E0E0F0E00FC09A
:100DD0008F2F9927ED91F0E0E827F927EE0FFF1FFD
:100DE000E45EFE4F0190F081E02DE827F927615085
:100DF00070408FEF6F3F780759F7CF010895FC01DE
:100E00008FEF9FEF9183808308950F931F93CF936C
:100E1000DF93EC0148815981A0E0B0E0E0E8F0E028
:100E200070E001E210E19A01220F331FCF01862307
:100E30009723892B11F02F5F3F4F57FD02C0A90167
:100E400003C0A901402751271196A830B10519F018
:100E5000F695E795E8CF59834883DF91CF911F91AD
:100E60000F910895FC012081318140E050E061E262
:100E700070E1C901220F331F97FF02C026273727D1
:100E80004F5F5F4F40315105A1F7318320830895B3
:100E9000CF92DF92EF92FF920F931F93DF93CF9346
:100EA00000D0CDB7DEB77C018FEF9FEF9A838983A7
:100EB0008B016E010894C11CD11C08C0C601F7014A
:100EC00061917F010E940507015010401016110624
:100ED000ACF329813A8140E050E061E270E1C90160
:100EE000220F331F97FF02C0262737274F5F5F4F20
:100EF00040315105A1F7C9010F900F90CF91DF91BB
:100F00001F910F91FF90EF90DF90CF900895FC011B
:100F100088E090E0A0E0B0E084839583A683B78367
:100F200089E090E0A0E0B0E080839183A283B38366
:100F300010861186128613868EEE92E0A0E0B0E055
:100F400084879587A687B78782E390E0A0E0B0E02A
:100F5000808B918BA28BB38B148A158A168A178A81
:100F600081E0808F118E128E138E148E80E293E0BA
:100F7000A0E0B0E0858F968FA78FB0A315A28DEC6F
:100F80009CECACECBEE381A392A3A3A3B4A308950D
:100F90000F931F93CF93DF93EC018B01F901433043
:100FA00009F445C0443038F44130F9F051812081D2
:100FB000423080F50DC0453009F455C0453008F485
:100FC00044C0463009F45DC0473009F07EC067C0B8
:100FD000952F80E0820F911DAA2797FDA095BA2F2B
:100FE0008C839D83AE83BF8375C0918180E0208117
:100FF000820F911DAA2797FDA095BA2F8C8B9D8BF0
:10100000AE8BBF8B188E0097A105B10509F062C0A9
:10101000488F60C0952F80E0820F911DAA2797FD11
:10102000A095BA2F88879987AA87BB875CC09181D2
:1010300080E02081820F911DAA2797FDA095BA2FED
:101040008C879D87AE87BF874EC0918180E02081CD
:10105000820F911DAA2797FDA095BA2F888B998B97
:10106000AA8BBB8B40C0918180E02081820F911DB3
:10107000AA2797FDA095BA2F898F9A8FAB8FBC8F27
:1010800029C0918180E02081820F911DAA2797FDC0
:10109000A095BA2F8D8F9E8FAF8FB8A31BC0718183
:1010A00060E02081620F711D882777FD8095982F61
:1010B0000E94721920E030E04AE754E40E94D718F9
:1010C00069A37AA38BA39CA305C0423018F04550B6
:1010D000433048F409501A4F8D8D9E8DF80181934D
:1010E000919311821082DF91CF911F910F910895FA
:1010F00008952F923F924F925F926F927F928F92BC
:101100009F92AF92BF92CF92DF92EF92FF920F9396
:101110001F93DF93CF93CDB7DEB76B970FB6F894DD
:10112000DEBF0FBECDBFEA8AFB8A0C8B1D8BDF8A28
:10113000CE8AB98EA88EA8A9B9A9EAA9FBA98EE181
:101140008093C50486E08093C60485EC94E09F8775
:101150008E875C874B8798868F823E832D839F0185
:101160003C832B839D013A83298391E09D871A86D6
:1011700019862D85EE85FF852283EB85FC85F08120
:10118000F98BEB85FC85F181F88BE88DF98D8985EC
:101190009A85E80FF91F60807180828093806A8948
:1011A0007B898C899D89A40193010E94681A5B0147
:1011B0006C01EE89FF8989859A85E80FF91FE08027
:1011C000F18002811381C601B501A80197010E9437
:1011D000D0181816ACF0EB81FC816081718182819E
:1011E000938120E030E040E05FE30E94681AA601AE
:1011F00095010E94681AA60195010E94681A61C0B3
:10120000C401B301A80197010E946B181B012C01B6
:10121000C601B501A20191010E94D01818161CF157
:10122000E981FA81E080F18002811381C801B70170
:10123000A60195010E94681A5B016C01C801B70103
:1012400020E030E040E05FEB0E94681AA8019701BF
:101250000E94681AEB81FC81208131814281538197
:101260000E94D71828C0C401B301A60195010E94AD
:101270006B187B018C01C201B101E981FA812081E7
:101280003181428153810E94681A5B016C01EB81BC
:10129000FC81608171818281938120E030E040E0B7
:1012A0005FEB0E94681AA80197010E94681AA801C2
:1012B00097010E94681A9B01AC01C601B5010E940A
:1012C0006C18F889FB8F1A8EEA8CFB8C2989E20E48
:1012D000F11C0027F7FC0095102F0E943F19EF81A9
:1012E000F88520813181442737FD4095542F0E9495
:1012F000661B6E0D7F1D801F911F97FF04C060E06D
:1013000070E080E090E06030F4E07F07F0E08F076D
:10131000F0E09F0724F06FEF73E080E090E0EE854F
:10132000FF8563837483ED81FE818281EE85FF8575
:101330008583ED81FE818381EE85FF858683ED8146
:10134000FE818481EE85FF858783ED81FE81858125
:10135000EE85FF8580873796FF87EE87FD85FF5FE7
:10136000FD878B859C8506969C878B87E985FA850A
:101370003496FA87E9878F819885029698878F83BC
:10138000ED81FE813696FE83ED838B819C810496F0
:101390009C838B83E981FA813496FA83E98389857A
:1013A0009A858834910509F0E4CE8EEF63E840E831
:1013B0000E9480056B960FB6F894DEBF0FBECDBFBE
:1013C000CF91DF911F910F91FF90EF90DF90CF9021
:1013D000BF90AF909F908F907F906F905F904F9055
:1013E0003F902F9008952F923F925F926F927F923D
:1013F0008F929F92AF92BF92CF92DF92EF92FF9225
:101400000F931F93DF93CF9300D000D0CDB7DEB7FB
:10141000782E692E962E872E8EE18093C50486E065
:101420008093C604CA01B9010E9472195B016C0164
:10143000C801B7010E9472199B01AC01C601B50138
:101440000E94D71869837A838B839C8387ECC82E8C
:1014500084E0D82E292D382DC9011C01272D362DC9
:10146000C9015C0155245394F6015082F501718045
:10147000662480817301E80EF11C0027F7FC0095BB
:10148000102FF101918088248081B401680F711DB3
:10149000882777FD8095982F6E197F09800B910B17
:1014A0000E94721929813A814B815C810E94681ADD
:1014B0000E943F196E0D7F1D801F911F97FF04C072
:1014C00060E070E080E090E06030F4E07F07F0E002
:1014D0008F07F0E09F0724F06FEF73E080E090E06B
:1014E000F60161837283F1018281F6018383F10148
:1014F0008381F6018483F1018481F6018583F10102
:101500008581F601868387E090E0C80ED91E53944A
:10151000E6E0F0E02E0E3F1EAE0EBF1EF3E15F16BA
:1015200009F0A2CF8EEF63E840E80E9480050F909B
:101530000F900F900F90CF91DF911F910F91FF901F
:10154000EF90DF90CF90BF90AF909F908F907F9063
:101550006F905F903F902F9008952F923F924F92FF
:101560005F926F927F928F929F92AF92BF92CF9233
:10157000DF92EF92FF920F931F93DF93CF93CDB73C
:10158000DEB7C054D0400FB6F894DEBF0FBECDBF5B
:101590003B014C016A963FAC6A976B962FAC6B97F8
:1015A0006C965FAC6C976D964FAC6D97A2968FACB6
:1015B000A297A3969FACA397CA01B9010E94701984
:1015C00069A77AA78BA79CA7C801B7010E947019C9
:1015D00020E030E04AE754E40E94D7186DA37EA3D0
:1015E0008FA398A7C601B5010E94701920E030E0D2
:1015F0004AE754E40E94D71869A37AA38BA39CA35B
:10160000788E6F8A6DA17EA18FA198A59B01AC01F8
:101610000E94681A6DA77EA78FA798AB252D342D41
:10162000C9019E878D87232D322DC9019C878B8709
:1016300094013A8729878D859E859A838983AB8516
:10164000BC85BC83AB83662477248F89988DAA27B9
:1016500097FDA095BA2F21968CAF9DAFAEAFBFAFCF
:101660002197A981BA811196BC91BAAB19AAE981D7
:10167000FA81808169A97AA9680F711D882777FD91
:101680008095982F0E9472197B018C01AB81BC81DF
:101690001196BC91BCAB1BAAEB81FC8180816BA92C
:1016A0007CA9680F711D882777FD8095982F0E946F
:1016B00072199B01AC01C801B7010E946B185B0154
:1016C0006C0120E030E040E050E00E94D01887FD3F
:1016D00005C081E090E0A0E0B0E008C0D7FAD09467
:1016E000D7F8D0948FEF9FEFAFEFBFEF898F9A8F2E
:1016F000AB8FBC8F69A17AA18BA19CA1A60195019A
:101700000E94681A7B018C016DA57EA58FA598A902
:10171000A80197010E94641A1816ECF4C801B701D9
:101720000E94CF1A7B018C0121966CAD7DAD8EADF0
:101730009FAD21970E9472199B01AC0169A17AA10A
:101740008BA19CA10E94681A9B01AC01C801B70142
:101750000E94D7181EC021966CAD7DAD8EAD9FAD99
:1017600021970E9472199B01AC0169A17AA18BA1FA
:101770009CA10E94681A9B01AC016DA17EA18FA162
:1017800098A50E94D71820E030E040E05FE30E9477
:101790006C180E943F1921962CAD3DAD4EAD5FAD4A
:1017A00021970E94661B6D8F7E8F8F8F98A30E945A
:1017B00072199B01AC0169A57AA58BA59CA50E9415
:1017C0006B180E943F191B012C018D8D9E8DAF8DD2
:1017D000B8A10097A105B10541F481E090E0A0E037
:1017E000B0E08D8F9E8FAF8FB8A3211431044104D8
:1017F000510429F491E0292E312C412C512CC201A5
:10180000B1010E9472199B01AC01C601B5010E9491
:10181000D7184B015C016D8D7E8D8F8D98A10E9434
:1018200072197B018C01A196CEACDFACA197C60CDE
:10183000D71C8D8D9E8DAF8DB8A1280E391E4A1EE6
:101840005B1EC201B1010E947219D6016D937D9396
:101850008D939C931397E985FA85898D9A8D819351
:101860009193FA87E9876F96EEADFFAD6F97E60D1E
:10187000F71DE082F18202831383A596EEADFFADE2
:10188000A597E60DF71D80829182A282B382A7966A
:10189000CEACDFACA797C60CD71CC501B401A8011C
:1018A00097010E94D718D6016D937D938D939C93D9
:1018B0001397E981FA813696FA83E9838B819C81BB
:1018C00006969C838B83A4E0B0E06A0E7B1EB8E48E
:1018D0006B16710409F0C5CE69968CAD9DADAEADA9
:1018E000BFAD69970197A105B10509F042C11B8AF7
:1018F0001C8A1D8A1E8ACC24DD24A196EEADFFAD84
:10190000A197EC0DFD1DE080F180028113816B89B0
:101910007C898D899E890E9472199B01AC01C80146
:10192000B7010E94641A181644F4C801B7010E9456
:101930003F196B8B7C8B8D8B9E8BE4E0F0E0CE0EA1
:10194000DF1EF8E4CF16D104C1F6A7968EAD9FAD89
:10195000A7979A8B898B188A1F868F89988DAA27BB
:1019600097FDA095BA2F89AF9AAFABAFBCAFAD854D
:10197000BE851196BC91BEAB1DAAED85FE8580810A
:101980006DA97EA9680F711D882777FD8095982F16
:101990000E9472197B018C01AB85BC851196BC91AC
:1019A000B8AF1FAAEB85FC8580816FA978AD680F61
:1019B000711D882777FD8095982F0E9472199B01D1
:1019C000AC01C801B7010E946B186D837E838F83C1
:1019D000988720E030E040E050E00E94D018882353
:1019E0004CF48D819E81AF81B885B0588D839E83E4
:1019F000AF83B887A989BA89AD90BD90CD90DC90AE
:101A00006B897C898D899E890E9472191B012C012A
:101A1000C601B501A20191010E94681A7B018C01E7
:101A200020E030E040E05FE30E94681A3B014C0197
:101A3000C801B70120E030E040E85EE30E94681A88
:101A4000A80197010E94681A7B018C016D817E813B
:101A50008F819885A60195010E94681A9B01AC01AF
:101A6000C801B7010E946B180E94CF1A9B01AC01FC
:101A7000C401B3010E946B187B018C0169AD7AAD82
:101A80008BAD9CAD0E9472199B01AC01C801B701DE
:101A90000E94681A9B01AC016D817E818F819885BF
:101AA0000E94D71820E030E040E05FE30E946C180D
:101AB0000E943F1929AD3AAD4BAD5CAD0E94661B4B
:101AC0007B018C010E9472199B01AC016D817E81AA
:101AD0008F8198850E94D7185B016C016B897C8986
:101AE0008D899E896E197F09800B910B0E94721956
:101AF0009B01AC01A196EEADFFADA1978F859889B2
:101B0000E80FF91F20823182428253826F96EEAD38
:101B1000FFAD6F97E80FF91F208331834283538312
:101B2000A596EEADFFADA597E80FF91FA082B18293
:101B3000C282D382C601B5010E94D718A989BA8989
:101B40006D937D938D939D93BA8BA98BED85FE85C7
:101B50003696FE87ED878B859C8506969C878B87BE
:101B6000AF85B8891496B88BAF87A834B10509F052
:101B7000FECEC05CDF4F0FB6F894DEBF0FBECDBF08
:101B8000CF91DF911F910F91FF90EF90DF90CF9059
:101B9000BF90AF909F908F907F906F905F904F908D
:101BA0003F902F9008952F923F924F925F926F92A5
:101BB0007F928F929F92AF92BF92CF92DF92EF92DD
:101BC000FF920F931F93DF93CF93CDB7DEB7A69706
:101BD0000FB6F894DEBF0FBECDBF3B014C013FAC4A
:101BE00021962FAC219722965FAC229723964FAC7B
:101BF000239728968FAC289729969FAC2997CA01DE
:101C0000B9010E947019698F7A8F8B8F9C8FC801E0
:101C1000B7010E94701920E030E04AE754E40E94C6
:101C2000D7186D8B7E8B8F8B988FC601B5010E9464
:101C3000701920E030E04AE754E40E94D718698B1D
:101C40007A8B8B8B9C8B6D897E898F89988D9B017C
:101C5000AC010E94681A6D8F7E8F8F8F98A3252DFF
:101C6000342DC90198878F83232D322DC9019E837E
:101C70008D8394013A8329831C821B82C301AA2786
:101C800097FDA095BA2F8BA39CA3ADA3BEA3AF8154
:101C9000B8851196BC91BAA319A2EF81F88580810D
:101CA00069A17AA1680F711D882777FD8095982F0B
:101CB0000E9472197B018C01AD81BE8111967C90CE
:101CC000119766248C91B301680F711D882777FDE9
:101CD0008095982F0E9472199B01AC01C801B70131
:101CE0000E946B185B016C0120E030E040E050E0A6
:101CF0000E94D01887FD05C081E090E0A0E0B0E030
:101D000008C0D7FAD094D7F8D0948FEF9FEFAFEFF9
:101D1000BFEF89879A87AB87BC8769897A898B8966
:101D20009C89A60195010E94681A20E030E040E0FD
:101D30005FE30E94681A7B018C016D8D7E8D8F8D13
:101D400098A1A80197010E94641A1816FCF4C80112
:101D5000B7010E94CF1A9B01AC010E946C187B0155
:101D60008C016BA17CA18DA19EA10E9472199B0187
:101D7000AC0169897A898B899C890E94681A9B01C8
:101D8000AC01C801B7010E94D71824C06D897E89B3
:101D90008F89988D9B01AC010E946C187B018C018E
:101DA0006BA17CA18DA19EA10E9472199B01AC0127
:101DB00069897A898B899C890E94681A9B01AC0188
:101DC000C801B7010E94D71820E030E040E05FE38F
:101DD0000E946C180E943F192BA13CA14DA15EA14D
:101DE0000E94661B6D877E878F87988B0E94721971
:101DF0009B01AC01698D7A8D8B8D9C8D0E946B1837
:101E00000E943F191B012C018D859E85AF85B889E5
:101E10000097A105B10541F481E090E0A0E0B0E0B9
:101E20008D879E87AF87B88B2114310441045104FC
:101E300029F421E0222E312C412C512CC201B10178
:101E40000E9472199B01AC01C601B5010E94D7180E
:101E50007B018C016D857E858F8598890E94721922
:101E60004B015C012796CEACDFAC2797AB81BC81E0
:101E7000CA0EDB1E8D859E85AF85B889280E391E5A
:101E80004A1E5B1EC201B1010E947219D6016D93F8
:101E90007D938D939C931397E981FA8189859A8527
:101EA00081939193FA83E9832596EEADFFAD259753
:101EB000AB81BC81EA0FFB1F80829182A282B38238
:101EC0002B96EEADFFAD2B97EA0FFB1FE082F18260
:101ED000028313832D96CEACDFAC2D97CA0EDB1E8A
:101EE000C801B701A80197010E946C18A5019401CF
:101EF0000E94D718F60160837183828393838F8158
:101F00009885069698878F83AD81BE811696BE838D
:101F1000AD83EB81FC813496FC83EB83E834F105DF
:101F200009F0B5CEA6960FB6F894DEBF0FBECDBFB2
:101F3000CF91DF911F910F91FF90EF90DF90CF90A5
:101F4000BF90AF909F908F907F906F905F904F90D9
:101F50003F902F9008952F923F924F925F926F92F1
:101F60007F928F929F92AF92BF92CF92DF92EF9229
:101F7000FF920F931F93DF93CF9300D000D0CDB784
:101F8000DEB77A8369831A0182519A4FDC018C9102
:101F9000AE5EB540BC83AB83882309F412C1FB015C
:101FA00085A1882309F00DC180859185A285B3851F
:101FB00081309105A105B10531F00397A105B10567
:101FC00009F0FAC079C02DB73EB7225130400FB6A4
:101FD000F8943EBF0FBE2DBF4DB65EB60894411CAF
:101FE000511CA981BA8154966D917D918D919C91DE
:101FF00057975D962D913D914D915C9190971C96D0
:10200000ED90FD900D911C911F975096AD90BD9055
:10201000CD90DC90539759966D907D908D909C90CB
:102020005C97EDB7FEB76182728283829482AB8146
:10203000BC81A551BA4FED91FD91BC83AB83D20118
:102040001596FC93EE931497AB81BC81EC91AD5E39
:10205000B540BC83AB83ACE6EA9FF0011124E259A2
:10206000FF4FAB81BC81EA0FFB1FD2011796FC9397
:10207000EE93169719963C922E921897E8E4F0E0AA
:102080002E0E3F1E1B963C922E921A972E0E3F1E2E
:102090001D963C922E921C97A4E2B0E02A0E3B1EA5
:1020A000F20137862686A8E4B0E02A0E3B1E318A6C
:1020B000208A0E94AD0A78C02DB73EB72251304029
:1020C0000FB6F8943EBF0FBE2DBF4DB65EB6089456
:1020D000411C511CA981BA8154966D917D918D91BD
:1020E0009C9157975D962D913D914D915C91909764
:1020F0001C96ED90FD900D911C911F975096AD9000
:10210000BD90CD90DC90539759966D907D908D90B9
:102110009C905C97EDB7FEB7618272828382948255
:10212000AB81BC81A551BA4FED91FD91BC83AB83CE
:10213000D2011596FC93EE931497AB81BC81EC9180
:10214000AD5EB540BC83AB83ACE6EA9FF0011124E1
:10215000E259FF4FAB81BC81EA0FFB1FD2011796FA
:10216000FC93EE93169719963C922E921897E8E4FA
:10217000F0E02E0E3F1E1B963C922E921A972E0ECA
:102180003F1E1D963C922E921C97A4E2B0E02A0EB0
:102190003B1EF20137862686A8E4B0E02A0E3B1EDD
:1021A000318A208A0E94D30DEDB7FEB772960FB622
:1021B000F894FEBF0FBEEDBF81E0A981BA8195966C
:1021C0008C930F900F900F900F90CF91DF911F91F4
:1021D0000F91FF90EF90DF90CF90BF90AF909F90C6
:1021E0008F907F906F905F904F903F902F900895C9
:1021F0002F926F927F928F929F92AF92BF92CF92C7
:10220000DF92EF92FF920F931F93DF93CF93CDB79F
:10221000DEB7A8970FB6F894DEBF0FBECDBFEF8A2A
:10222000F88E098F1A8FDC8ECB8EBE8EAD8EECAD04
:10223000FDAD8EE18093C50486E08093C60485ECF5
:1022400094E09C878B875A8749879E828D823C8346
:102250002B839F013A8329832224239418861F828B
:10226000AB85BC8512962C92E985FA85F081FE8BB0
:10227000A985BA851196BC91BD8BED8DFE8D8F81A0
:102280009885E80FF91F80819181A281B381898BA4
:102290009A8BAB8BBC8B6F89788D898D9A8D2989B0
:1022A0003A894B895C890E94681A6F8F78A389A349
:1022B0009AA3EB8DFC8DAF81B885EA0FFB1F80815F
:1022C0009181A281B3818D879E87AF87B88B6F8DF7
:1022D00078A189A19AA12D853E854F8558890E94B4
:1022E000D01818160CF44DC06F8D78A189A19AA151
:1022F0002BED3FE049EC50E40E94681A2D853E85A5
:102300004F8558890E94D7180E94D4185B016C0130
:102310006F8D78A189A19AA120E030E040E85EE3CA
:102320000E94681A2F8D38A149A15AA10E94681AEB
:102330003B014C016D857E858F8598899B01AC01A1
:102340000E94681A27EE39EE4DE952E40E94D71830
:102350007B018C01C601B50120E030E040E85FE37D
:102360000E946B189B01AC01C801B7010E94681A5A
:102370009B01AC01C401B3010E946C18A981BA8110
:102380002FC069897A898B899C892D853E854F85E7
:1023900058890E946B185B016C016F8D78A189A12F
:1023A0009AA1A60195010E94D0181816F4F00AAD62
:1023B0001BADEF81F8850E0F1F1F6D857E858F8504
:1023C000988920E030E040E05FEB0E94681A9B01B2
:1023D000AC016F8D78A189A19AA10E946C18D801D7
:1023E0002D913D914D915C91A8C06BED7FE089EC02
:1023F00090E42D853E854F8558890E94D7187B0132
:102400008C016F8D78A189A19AA1A60195010E94E6
:102410006B189B01AC01C801B7010E94681A0E94A9
:10242000D4183B014C01E981FA816081718182817C
:10243000938120E030E040E05FE30E94681A6BA3E4
:102440007CA38DA39EA36F8D78A189A19AA12D85D0
:102450003E854F8558890E946C189B01AC016989A3
:102460007A898B899C890E94681A5B016C016F8D47
:1024700078A189A19AA19B01AC010E94681A7B01F5
:102480008C0169897A898B899C899B01AC010E94A6
:10249000681A9B01AC01C801B7010E946C187B014E
:1024A0008C016D857E858F8598899B01AC010E948A
:1024B0006C182D853E854F8558890E94681A9B01AE
:1024C000AC01C801B7010E946C1820E030E040E088
:1024D0005FEB0E94681A9B01AC01C601B5010E9426
:1024E0006C185B016C016D857E858F8598899B01D9
:1024F000AC010E94681A27EE39EE4DE152E40E94C9
:10250000D7187B018C0160E070E080E89FE3A401B4
:1025100093010E946B189B01AC01C801B7010E9496
:10252000681A9B01AC01C601B5010E946C189B01A1
:10253000AC016BA17CA18DA19EA10E94681AFD89AE
:10254000F8A71FA2EFA0F8A42E89E20EF11C002725
:10255000F7FC0095102F0E943F19AD81BE812D918F
:102560003C91442737FD4095542F0E94661B6E0D09
:102570007F1D801F911F97FF04C060E070E080E026
:1025800090E06030B4E07B07B0E08B07B0E09B07E1
:1025900024F06FEF73E080E090E0EB85FC856383CF
:1025A0007483AB81BC8112968C91129785831396AC
:1025B0008C911397868314968C9114978783159624
:1025C0008C9180873796FC87EB872394E985FA8581
:1025D0003696FA87E9878F819885049698878F8346
:1025E000AD81BE811296BE83AD83EB81FC813696B0
:1025F000FC83EB8389819A8104969A838983AF81D6
:10260000B885A834B10509F02BCE8EEF63E840E819
:102610000E948005A8960FB6F894DEBF0FBECDBF0E
:10262000CF91DF911F910F91FF90EF90DF90CF90AE
:10263000BF90AF909F908F907F906F902F90089554
:102640002F923F924F925F926F927F928F929F92C2
:10265000AF92BF92CF92DF92EF92FF920F931F93B0
:10266000CF93DF93FC011B01EA01DB0118962D914A
:102670003D914D915C911B972130310541055105EC
:1026800069F0213031054105510508F4B5C023300A
:1026900031054105510509F0CEC055C000D000D02C
:1026A0006DB67EB60894611C711CDB0154968D904A
:1026B0009D90AD90BC905797E551FA4F4190519045
:1026C000808143E1C42E4AEFD42ECE0EDF1E2CE6CD
:1026D000829FC001112482599F4FC80ED91E6D914F
:1026E0007D918D919C910E9470197B018C01F1016B
:1026F00064817581868197810E9470199B01AC016C
:10270000C801B7010E94D7187B018C01FE01E05778
:10271000FF4FCC54DF4FD3011196DC93CE93C85BAF
:10272000DF4F1396DC93CE931297CC5FD040C50158
:10273000B401A20196016E01C85BDF4F5E014F013B
:102740000E94790854C000D000D06DB67EB60894BF
:10275000611C711CDB0154968D909D90AD90BC90D6
:102760005797E551FA4F41905190808133E1C32E44
:102770003AEFD32ECE0EDF1E2CE6829FC00111242D
:1027800082599F4FC80ED91E6D917D918D919C915C
:102790000E9470197B018C01F10164817581868131
:1027A00097810E9470199B01AC01C801B7010E947A
:1027B000D7187B018C01FE01E057FF4FCC54DF4F4F
:1027C000D3011196DC93CE93C85BDF4F1396DC9355
:1027D000CE931297CC5FD040C501B401A2019601FF
:1027E0006E01C85BDF4F5E014F010E94F8100F9031
:1027F0000F900F900F901FC0E351FA4F6081ED5E74
:10280000F5408CE6689FB001112462597F4F6E0F2E
:102810007F1FD1012D913D914D915C91139714969D
:10282000ED90FD900D911C911797E551FA4F808125
:1028300091810E94F309DF91CF911F910F91FF9039
:10284000EF90DF90CF90BF90AF909F908F907F9050
:102850006F905F904F903F902F900895CF92DF92AE
:10286000EF92FF920F931F93CF93DF938B0124E29C
:102870002093C50426E02093C604FB011082EC01DE
:10288000FF24F394EE24E394F801E082CC24DD24C9
:1028900022C08F2D62E042E00E9480058091C60434
:1028A0008A5F0E94C80590E02091C60430E02A5F4C
:1028B0003F4F8217930721F051E0C52ED12C0BC05A
:1028C000EBE4F5E0DE0181918D9385E0E135F807D9
:1028D000D1F7F8011082F8018081813021F4C11410
:1028E000D104B9F205C0F3942696F3E1FF1661F620
:1028F000DF91CF911F910F91FF90EF90DF90CF90DC
:102900000895CF93DF93EC01C651DA4F8881CA5EF8
:10291000D540882399F00E940E05CD50DA4F2881CA
:1029200039814A815B81C35FD540621B730B840B85
:10293000950B605D77408040904028F0FE01E551A6
:10294000FA4FD183C083DF91CF9108954F925F9268
:102950006F927F928F929F92AF92BF92CF92DF92AF
:10296000EF92FF920F931F93DF93CF93CDB7DEB714
:1029700029970FB6F894DEBF0FBECDBF4C012B01D7
:102980003A0119820E940E059B01AC01B40161510C
:102990007A4FDB01ED90FD900D911C91F20184893D
:1029A0009589A689B7898E0D9F1DA01FB11F281775
:1029B00039074A075B0708F4E3C181E196E0880E16
:1029C000991EC9018E199F09D4018D939C93EFEE36
:1029D000F9EF8E0E9F1EDB012D933D934D935C937B
:1029E0001397F20120813181428153818481958145
:1029F000A681B78182179307A407B50708F45DC1C4
:102A0000840102511A4FD8018C9190E0A0E0B0E00F
:102A1000218D328D438D548D281739074A075B0766
:102A200008F0A2C185A1882309F49EC1C401B201A6
:102A3000A3010E942013F201208131814281538140
:102A400084819581A681B781281739074A075B07DA
:102A500008F48AC115A2D8014C9141504C93F4015D
:102A6000E351FA4F208130E0C90101966CE070E03B
:102A70000E94991B80838CE690E0FC012E9FC00190
:102A80002F9F900D3E9F900D112482599F4F880DCE
:102A9000991D2BEE35E0820E931ED4018D939C93ED
:102AA00081E0F40182934F0126E13AEF820E931EFA
:102AB000442329F0C401B201A3010E94AB0FF40129
:102AC000E151FA4FD20154962D913D914D915C9177
:102AD0005797569547953795279580819181A28183
:102AE000B381821B930BA40BB50B80839183A283CC
:102AF000B383E3EFCE2EE5E0DE2EC80CD91CF60141
:102B0000E080F180028113810E940E05D6016D9351
:102B10007D938D939C9313979B01AC012E193F09D4
:102B2000400B510B2E833F8348875987205D3740E8
:102B30004040504008F018C177EFC72E75E0D72EFF
:102B4000C80CD91CD6016D917C9180E090E00E9468
:102B5000701923E333E343E35FE30E94681A7B01C8
:102B60008C016E817F81888599850E9470192AE980
:102B700039E949E95EE30E94681A9B01AC01C8018A
:102B8000B7010E946C180E9444193B01F601718341
:102B90006083D20158968C915897882309F4E4C039
:102BA0005D966D917D918D919C9190970E94701989
:102BB0009B01AC010E94681A5B016C01F201648107
:102BC0007581868197810E9470197B018C01B30108
:102BD00080E090E00E9470199B01AC01C801B70130
:102BE0000E94681A9B01AC01C601B5010E94D7186A
:102BF0006A837B838C839D832EEE35E0820E931E49
:102C0000D4016C91623008F444C070E061507040AF
:102C1000882777FD8095982F0E9472197B018C017F
:102C2000F201A1A0B2A0C3A0D4A060E070E080E84F
:102C30009FE3A60195010E946B183B014C01C8015E
:102C4000B701A80197010E94681A20E030E040E82F
:102C50005CEB0E94681A20E030E040E85FE30E94ED
:102C60006C189B01AC01C601B5010E94681A9B015A
:102C7000AC01C401B3010E946C189B01AC016A81D4
:102C80007B818C819D810E94681A6A837B838C83FF
:102C90009D836A817B818C819D8120E030E040E0D2
:102CA0005FE30E946C180E944419D20154966D9300
:102CB0007D938D939C93579757C01982F20185A1FC
:102CC000882331F4C401BE016F5F7F4F0E942E1430
:102CD00089818823D9F00E940E052FEE35E0820EFF
:102CE000931ED20154962D913D914D915C91579731
:102CF000621B730B840B950B665F7F4F8F4F9F4F4B
:102D0000F40160837183828393833AC0D2011D9260
:102D10001D921D921C92139795968C91882351F4C5
:102D2000C401B201A3010E948114C401B201A30134
:102D30000E94AB0FF401E151FA4FD20154962D914C
:102D40003D914D915C9157975695479537952795AD
:102D500080819181A281B381821B930BA40BB50B5F
:102D600080839183A283B383F20180819181A281C8
:102D7000B3810196A11DB11D80839183A283B3838A
:102D8000898129960FB6F894DEBF0FBECDBFCF91D3
:102D9000DF911F910F91FF90EF90DF90CF90BF9048
:102DA000AF909F908F907F906F905F904F9008951D
:102DB0000F931F938C01FC01E551FA4F918380839F
:102DC00003511A4FF801119211928F010E940E05C2
:102DD000F8016193719381939193619371938193BE
:102DE0009193119211928F01118210820F50104015
:102DF000F8011082095D1F4FF801118210821F91A6
:102E00000F910895806487B986EC86B93699FECF14
:102E100024B145B1942F80E030E0282B392BC90133
:102E200008958F929F92AF92BF92CF92DF92EF92CE
:102E3000FF920F931F93CF93DF938C016B01EA01F5
:102E4000BC01E0E0F0E030C0DB019C9011968C907A
:102E50005F010894A11CB11C42E0E42EF12CE60EA7
:102E6000F71E892D982D9C01A501D7010DC08D91CC
:102E70009C9111978217930710F0C90101C0FA01C4
:102E80004F5F5F4F12969C014C155D0584F3EE0F6A
:102E9000FF1FE00FF11F80819181DB018D939C93D7
:102EA00090828182F501B701EC15FD056CF2BE013F
:102EB000FE01EE0FFF1FE00FF11F808191819C0149
:102EC00040E050E0FE013196EE0FFF1FE00FF11FD2
:102ED00086010C1B1D0B08C081919191A0E0B0E010
:102EE000280F391F4A1F5B1F6F5F7F4F60177107E5
:102EF0009CF3CA01B9010E9470197B018C01CC0FAF
:102F0000DD1FCC1ADD0AB601882777FD8095982F42
:102F10000E9472199B01AC01C801B7010E94D71829
:102F2000DF91CF911F910F91FF90EF90DF90CF90A5
:102F3000BF90AF909F908F9008952F923F924F92A5
:102F40005F926F927F928F929F92AF92BF92CF9239
:102F5000DF92EF92FF920F931F93DF93CF93CDB742
:102F6000DEB7C554D0400FB6F894DEBF0FBECDBF5C
:102F70004C01F8941C9A89B7806189BF8FEF84BB9C
:102F800085BBBD9A80E187B980E886B9789488B31B
:102F90008A7F88BB26969FAE269700E010E0EE243D
:102FA000FF24CC24DD24F0E14F2EF7E25F2E3E011A
:102FB0000894611C711CE9E02E2E312C2C0E3D1E54
:102FC00081E487B986EC86B93699FECF84B125B104
:102FD000F801EE0FFF1FE60DF71DB22EAA2490E0B8
:102FE0008A299B29880F991F918780870F5F1F4F20
:102FF0000E311105F0F0C1016EE170E044E050E0E7
:103000000E94111720E030E040E05FE30E946C185E
:103010000E9444196B016415750530F42B0100E022
:1030200010E0EE24FF2405C00894E11CF11C00E030
:1030300010E0E814F90458F18FEF89838A838B83B9
:103040008C838D838E838F838887C30168E070E0D3
:103050000E94960688B3856088BBCB5BDF4F0FB6B6
:10306000F894DEBF0FBECDBFCF91DF911F910F91BE
:10307000FF90EF90DF90CF90BF90AF909F908F9098
:103080007F906F905F904F903F902F900895C80170
:1030900001976EE170E00E94851BFC01EE0FFF1F9F
:1030A000E60DF71D8085918589839A83CB82DC822A
:1030B000ED82FE828F8226968FAD26978887C30188
:1030C00068E070E00E94960660EA76E881E090E0B1
:1030D0000E940D0575CF5058BB27AA270ED0A9C155
:1030E00069D130F06ED120F031F49F3F11F41EF41D
:1030F0005EC10EF4E095E7FB54C1E92FBCD180F32B
:10310000BA17620773078407950718F071F49EF5E4
:10311000D4C10EF4E0950B2EBA2FA02D0B01B901EE
:1031200090010C01CA01A0011124FF27591B99F03D
:10313000593F50F4503E68F11A16F040A22F232F49
:10314000342F4427585FF3CF469537952795A79599
:10315000F0405395C9F77EF41F16BA0B620B730B40
:10316000840BBAF09150A1F0FF0FBB1F661F771FB1
:10317000881FC2F70EC0BA0F621F731F841F48F466
:10318000879577956795B795F7959E3F08F0B3CFEC
:103190009395880F08F09927EE0F979587950895D6
:1031A000DCD008F481E0089514D1E39553C10CD02C
:1031B00040C107D140F0FED030F021F45F3F19F05C
:1031C000F0C051117BC1F3C056D198F39923C9F3D4
:1031D0005523B1F3951B550BBB27AA27621773071D
:1031E000840738F09F5F5F4F220F331F441FAA1FD1
:1031F000A9F333D00E2E3AF0E0E830D09150504091
:10320000E695001CCAF729D0FE2F27D0660F771F3E
:10321000881FBB1F261737074807AB07B0E809F020
:10322000BB0B802DBF01FF2793585F4F2AF09E3FB5
:10323000510568F0B6C042C15F3FECF3983EDCF345
:10324000869577956795B795F7959F5FC9F7880F2E
:10325000911D9695879597F90895E1E0660F771F80
:10326000881FBB1F621773078407BA0720F0621B11
:10327000730B840BBA0BEE1F88F7E095089504D00A
:103280006894B1111BC10895FED088F09F5790F04B
:10329000B92F9927B751A0F0D1F0660F771F881F7B
:1032A000991F1AF0BA95C9F712C0B13081F005D153
:1032B000B1E0089502C1672F782F8827B85F39F0F1
:1032C000B93FCCF3869577956795B395D9F73EF4DA
:1032D00090958095709561957F4F8F4F9F4F089582
:1032E000E89409C097FB3EF49095809570956195A0
:1032F0007F4F8F4F9F4F9923A9F0F92F96E9BB2756
:103300009395F695879577956795B795F111F8CFD1
:10331000FAF4BB0F11F460FF1BC06F5F7F4F8F4F3C
:103320009F4F16C0882311F096E911C0772321F032
:103330009EE8872F762F05C0662371F096E8862FCA
:1033400070E060E02AF09A95660F771F881FDAF721
:10335000880F9695879597F90895990F0008550F4E
:10336000AA0BE0E8FEEF16161706E807F907C0F00B
:1033700012161306E407F50798F0621B730B840B13
:10338000950B39F40A2661F0232B242B252B21F4ED
:1033900008950A2609F4A140A6958FEF811D811D8D
:1033A000089597F99F6780E870E060E008959FEFC7
:1033B00080EC089500240A941616170618060906CC
:1033C000089500240A94121613061406050608959B
:1033D000EECF59D0E8F3E894EFEFBB273FE048EC9D
:1033E0005FE76B3D73078407950708F1FF279F5739
:1033F000B25A6A4D7F40894CF04032F4BE55654266
:10340000704F8643FF4F0894EE1F915030F0BB0F72
:10341000661F771F881FFF1FEBCF9EE7882332F0C0
:10342000BB0F661F771F881F9A95C1F79395E0958C
:1034300000C1092E0394000C11F4882352F0BB0F35
:1034400040F4BF2B11F460FF04C06F5F7F4F8F4FBC
:103450009F4F0895EF93E0FF06C0A2EA2AED3FE0F8
:1034600049EC5FEB4ADEE5DF0F90039401FC9058D6
:10347000ECE8F0E0F5C057FD9058440F551F59F0A7
:103480005F3F71F04795880F97FB991F61F09F3F51
:1034900079F087950895121613061406551FF2CF7A
:1034A0004695F1DF08C0161617061806991FF1CFCA
:1034B00086957105610508940895E894BB276627F1
:1034C0007727CB0197F9089548DF08F48FEF089527
:1034D0000BD0AFCF6FDF28F074DF18F0952309F021
:1034E00060CF65CF1124EACFC6DFA0F3959FD1F35B
:1034F000950F50E0551F629FF001729FBB27F00DA2
:10350000B11D639FAA27F00DB11DAA1F649F6627F6
:10351000B00DA11D661F829F2227B00DA11D621F45
:10352000739FB00DA11D621F839FA00D611D221FFF
:10353000749F3327A00D611D231F849F600D211DE3
:10354000822F762F6A2F11249F5750408AF0E1F086
:1035500088234AF0EE0FFF1FBB1F661F771F881FCF
:1035600091505040A9F79E3F510570F01ACFA6CF59
:103570005F3FECF3983EDCF3869577956795B795BA
:10358000F795E7959F5FC1F7FE2B880F911D9695E4
:10359000879597F9089511F40EF409CF4AC073DFA7
:1035A000D0F39923D9F3CEF39F57550B87FF51D012
:1035B00056959795B0E020F4660F771F881FBB1FC4
:1035C0001F930F9300249001A0018001F001A0E857
:1035D0000E0F1F1F0A1E511D601B710B8009B50BBA
:1035E00048F4600F711F801DB51F0E1B1F0B0A0AC8
:1035F000510907C02E0F3F1F4A1F0E0F1F1F0A1E23
:10360000511D660F771F881FBB1FA695F795E7957D
:10361000F8F60617170708065B07211D311D411D27
:103620000F911F91B901842F9158880F9695879516
:1036300008959F3F49F0915028F4869577956795B6
:10364000B7959F5F80389F4F880F9695879597F91C
:10365000089591505040660F771F881FD2F7089544
:103660009F938F937F936F93FF93EF939B01AC0195
:103670002FDFEF91FF9105D02F913F914F915F91F7
:1036800027CFDF93CF931F930F93FF92EF92DF9299
:103690007B018C01689405C0DA2EEF0125DFFE0165
:1036A000E894A5912591359145915591AEF3EF019F
:1036B00024DDFE019701A801DA9479F7DF90EF90FD
:1036C000FF900F911F91CF91DF910895629FD001DC
:1036D000739FF001829FE00DF11D649FE00DF11DCD
:1036E000929FF00D839FF00D749FF00D659FF00D7C
:1036F0009927729FB00DE11DF91F639FB00DE11D69
:10370000F91FBD01CF0111240895AA1BBB1B51E174
:1037100007C0AA1FBB1FA617B70710F0A61BB70B41
:10372000881F991F5A95A9F780959095BC01CD01E6
:10373000089597FB092E07260AD077FD04D0E5DF10
:1037400006D000201AF4709561957F4F0895F6F722
:10375000909581959F4F0895A1E21A2EAA1BBB1B3D
:10376000FD010DC0AA1FBB1FEE1FFF1FA217B3074D
:10377000E407F50720F0A21BB30BE40BF50B661F63
:10378000771F881F991F1A9469F760957095809527
:1037900090959B01AC01BD01CF010895F894FFCF36
:1037A0000000000000000300040000000100010010
:1037B0000200000000004600030002000000891122
:1037C00012239B322446AD573665BF74488CC19D89
:1037D0005AAFD3BE6CCAE5DB7EE9F7F88110080169
:1037E00093331A22A5562C47B7753E64C99C408D69
:1037F000DBBF52AEEDDA64CBFFF976E802218B3005
:10380000100299132667AF763444BD554AADC3BC48
:10381000588ED19F6EEBE7FA7CC8F5D983310A2028
:1038200091121803A7772E66B5543C45CBBD42AC28
:10383000D99E508FEFFB66EAFDD874C904428D53C0
:1038400016619F702004A9153227BB364CCEC5DF08
:103850005EEDD7FC6888E1997AABF3BA85520C43E8
:1038600097711E60A1142805B3373A26CDDE44CFE8
:10387000DFFD56ECE9986089FBBB72AA06638F7284
:1038800014409D512225AB343006B9174EEFC7FEC8
:103890005CCCD5DD6AA9E3B8788AF19B87730E62A8
:1038A00095501C41A3352A24B1163807CFFF46EEA8
:1038B000DDDC54CDEBB962A8F99A708B0884819550
:1038C0001AA793B62CC2A5D33EE1B7F04008C91998
:1038D000522BDB3A644EED5F766DFF7C8994008558
:1038E0009BB712A6ADD224C3BFF136E0C118480978
:1038F000D33B5A2AE55E6C4FF77D7E6C0AA583B4F4
:10390000188691972EE3A7F23CC0B5D14229CB3857
:10391000500AD91B666FEF7E744CFD5D8BB502A417
:1039200099961087AFF326E2BDD034C1C3394A2837
:10393000D11A580BE77F6E6EF55C7C4D0CC685D7AF
:103940001EE597F42880A1913AA3B3B2444ACD5B17
:103950005669DF78600CE91D722FFB3E8DD604C7D7
:103960009FF516E4A9902081BBB332A2C55A4C4BF7
:10397000D7795E68E11C680DF33F7A2E0EE787F673
:103980001CC495D52AA1A3B03882B193466BCF7AD7
:103990005448DD59622DEB3C700EF91F8FF706E697
:1039A0009DD414C5ABB122A0B9923083C77B4E6AB7
:0C39B000D5585C49E33D6A2CF11E780FED
:00000001FF
